:04000000FEEF7FF0A0
:101600000048656C6C6F20576F726C64210A0D0086
:0116100000D9
:101612006100DCF4D9F46100E0F4DAF4DEC4F6F43B
:10162200DDC4F7F4F86A0800F550250AD8A41CEFC7
:101632000BF01EEF0BF06EEF0BF06100DCF4D9F44F
:101642006100E0F4DAF4DE2A000EDD22000E246EE0
:10165200000E236E23C527F524C528F525682668C4
:101662006100DCF4D9F46100E0F4DAF4DEC4F6F4EB
:10167200DDC4F7F4F86A0800F550250AD8A444EF4F
:101682000BF046EF0BF05FEF0BF06100DCF4D9F4E6
:101692006100E0F4DAF4DE2A000EDD22000E2D6E87
:1016A200250E2C6E35C52EF536C52FF58FEC0BF0B9
:1016B200000E366E010E356E8EEF0BF06100DCF41B
:1016C200D9F46100E0F4DAF4DE2A000EDD22000E25
:1016D200366E000E356E8EEF0BF06100DCF4D9F43D
:1016E2006100E0F4DAF4DEC4F6F4DDC4F7F4F86A7B
:1016F2000800F5502C6E2D6A35C52EF536C52FF52E
:101702008FEC0BF06100DCF4D9F46100E0F4DAF460
:10171200DE2A000EDD2259EF0BF012002E502F10A0
:10172200D8B496EF0BF098EF0BF0A1EF0BF02E5020
:101732002F10D8A49FEF0BF0A1EF0BF0A6EF0BF048
:101742002C50E3EC0CF0D9EF0BF020EE04F02E500D
:10175200D9262F50DA22DE50DE10D8B4B3EF0BF0C8
:10176200B5EF0BF0D0EF0BF020EE04F02E50D9269F
:101772002F50DA2210EE02F02E50E1262F50E222F4
:10178200DE50E65CE650800A346EDE50800A345841
:10179200D8B0CEEF0BF0D0EF0BF0D9EF0BF020EE7C
:1017A20002F02E50D9262F50DA22DE2A000EDD2238
:1017B2001200000E0201A56F000EA66F000EA76FA9
:1017C200000EA86F000EA96F000EAA6FB00EAB6FCD
:1017D200800EAC6F000EAD6F330EAE6F000EAF6FAA
:1017E200000EB06F000EB16F000EB26F000EB36F3D
:1017F200000E2A6E000E2B6EEDEC0CF0000E2A6E1F
:10180200000E2B6EE8EC0CF0000E2A6E000E2B6E12
:10181200F2EC0CF0000E296E12003DC541F53EC5FA
:1018220042F5000E226E000E216E2AEF0CF03BC52F
:1018320035F53CC536F5410E376E050E386E3FC59F
:1018420039F540C53AF509EC0BF0355021263650F2
:101852002222610004F5F6F4610008F5F7F4F86A53
:101862000800F5500009D8A439EF0CF03BEF0CF05A
:1018720018EF0CF021C53BF522C53CF51200000E15
:10188200BE6E000EBF6E000EC06E3F0EC66E700EB4
:10189200C76EFD0EC86E04011069D00E086F370EB8
:1018A200006F000E096F000E016F000E116F000E27
:1018B200026F000E0A6F000E126F370E036FF00EEA
:1018C2000B6F13693F0E046FF00E0C6F1469100E4C
:1018D2000201106F0D0E726F1200DAEC0CF0C0B242
:1018E20075EF0CF078EF0CF0010E79EF0CF0000EB2
:1018F200FF0A476E4746C0504718FD0B4718C06E97
:10190200010E436E160E446E96EC0CF0030E486EFA
:101912008A0E476E560EE82EFED7472EFCD7482E6B
:10192200FAD770EF0CF0FEEF7FF0450E456E050E14
:10193200466E000E3B6E000E3C6E43C53DF544C53F
:101942003EF5450E3F6E050E406E0EEC0CF0120099
:10195200000E0001636F000E646F000E656F000ED3
:10196200666F000E676F000E686F1200600E000156
:10197200AD6F000EAF6F000EB36F020EB16F000EAF
:10198200B06F000EAC6F12002A6EB7A2CBEF0CF054
:10199200CDEF0CF0C6EF0CF06100A8F4A3F2120038
:1019A20001EE01F1290EEE6AE806FDE100016EEF9B
:1019B2000CF0A9EC0CF040EC0CF0B7EC0CF0DAEC0B
:1019C2000BF012002B6E2B50C5EC0CF012002AC546
:1019D2004BF52BC54CF512002AC54DF52BC54EF51E
:0C19E20012002AC549F52BC54AF5120079
:04FFFC00D1EF0CF045
:020000040020DA
:10000000FF0FFF0FFF0FFF0FFF0FFF0FFF0FFF0F80
:10001000FF0FFF0FFF0FFF0FFF0FFF0FFF0FFF0F70
:020000040030CA
:0A000000ECFFF7FF9FFFFFFFFFFF7B
:00000001FF
